{
  "_format": "hh-sol-artifact-1",
  "contractName": "Domains",
  "sourceName": "contracts/Domains.sol",
  "abi": [
    {
      "inputs": [
        {
          "internalType": "string",
          "name": "_tld",
          "type": "string"
        }
      ],
      "stateMutability": "payable",
      "type": "constructor"
    },
    {
      "inputs": [],
      "name": "AlreadyRegistered",
      "type": "error"
    },
    {
      "inputs": [
        {
          "internalType": "string",
          "name": "name",
          "type": "string"
        }
      ],
      "name": "InvalidName",
      "type": "error"
    },
    {
      "inputs": [],
      "name": "Unauthorized",
      "type": "error"
    },
    {
      "anonymous": false,
      "inputs": [
        {
          "indexed": true,
          "internalType": "address",
          "name": "owner",
          "type": "address"
        },
        {
          "indexed": true,
          "internalType": "address",
          "name": "approved",
          "type": "address"
        },
        {
          "indexed": true,
          "internalType": "uint256",
          "name": "tokenId",
          "type": "uint256"
        }
      ],
      "name": "Approval",
      "type": "event"
    },
    {
      "anonymous": false,
      "inputs": [
        {
          "indexed": true,
          "internalType": "address",
          "name": "owner",
          "type": "address"
        },
        {
          "indexed": true,
          "internalType": "address",
          "name": "operator",
          "type": "address"
        },
        {
          "indexed": false,
          "internalType": "bool",
          "name": "approved",
          "type": "bool"
        }
      ],
      "name": "ApprovalForAll",
      "type": "event"
    },
    {
      "anonymous": false,
      "inputs": [
        {
          "indexed": true,
          "internalType": "address",
          "name": "from",
          "type": "address"
        },
        {
          "indexed": true,
          "internalType": "address",
          "name": "to",
          "type": "address"
        },
        {
          "indexed": true,
          "internalType": "uint256",
          "name": "tokenId",
          "type": "uint256"
        }
      ],
      "name": "Transfer",
      "type": "event"
    },
    {
      "inputs": [
        {
          "internalType": "address",
          "name": "to",
          "type": "address"
        },
        {
          "internalType": "uint256",
          "name": "tokenId",
          "type": "uint256"
        }
      ],
      "name": "approve",
      "outputs": [],
      "stateMutability": "nonpayable",
      "type": "function"
    },
    {
      "inputs": [
        {
          "internalType": "address",
          "name": "owner",
          "type": "address"
        }
      ],
      "name": "balanceOf",
      "outputs": [
        {
          "internalType": "uint256",
          "name": "",
          "type": "uint256"
        }
      ],
      "stateMutability": "view",
      "type": "function"
    },
    {
      "inputs": [
        {
          "internalType": "string",
          "name": "",
          "type": "string"
        }
      ],
      "name": "domains",
      "outputs": [
        {
          "internalType": "address",
          "name": "",
          "type": "address"
        }
      ],
      "stateMutability": "view",
      "type": "function"
    },
    {
      "inputs": [
        {
          "internalType": "string",
          "name": "name",
          "type": "string"
        }
      ],
      "name": "getAddress",
      "outputs": [
        {
          "internalType": "address",
          "name": "",
          "type": "address"
        }
      ],
      "stateMutability": "view",
      "type": "function"
    },
    {
      "inputs": [],
      "name": "getAllNames",
      "outputs": [
        {
          "internalType": "string[]",
          "name": "",
          "type": "string[]"
        }
      ],
      "stateMutability": "view",
      "type": "function"
    },
    {
      "inputs": [
        {
          "internalType": "uint256",
          "name": "tokenId",
          "type": "uint256"
        }
      ],
      "name": "getApproved",
      "outputs": [
        {
          "internalType": "address",
          "name": "",
          "type": "address"
        }
      ],
      "stateMutability": "view",
      "type": "function"
    },
    {
      "inputs": [
        {
          "internalType": "string",
          "name": "name",
          "type": "string"
        }
      ],
      "name": "getRecord",
      "outputs": [
        {
          "internalType": "string",
          "name": "",
          "type": "string"
        }
      ],
      "stateMutability": "view",
      "type": "function"
    },
    {
      "inputs": [
        {
          "internalType": "address",
          "name": "owner",
          "type": "address"
        },
        {
          "internalType": "address",
          "name": "operator",
          "type": "address"
        }
      ],
      "name": "isApprovedForAll",
      "outputs": [
        {
          "internalType": "bool",
          "name": "",
          "type": "bool"
        }
      ],
      "stateMutability": "view",
      "type": "function"
    },
    {
      "inputs": [],
      "name": "isOwner",
      "outputs": [
        {
          "internalType": "bool",
          "name": "",
          "type": "bool"
        }
      ],
      "stateMutability": "view",
      "type": "function"
    },
    {
      "inputs": [],
      "name": "name",
      "outputs": [
        {
          "internalType": "string",
          "name": "",
          "type": "string"
        }
      ],
      "stateMutability": "view",
      "type": "function"
    },
    {
      "inputs": [
        {
          "internalType": "uint256",
          "name": "",
          "type": "uint256"
        }
      ],
      "name": "names",
      "outputs": [
        {
          "internalType": "string",
          "name": "",
          "type": "string"
        }
      ],
      "stateMutability": "view",
      "type": "function"
    },
    {
      "inputs": [],
      "name": "owner",
      "outputs": [
        {
          "internalType": "address payable",
          "name": "",
          "type": "address"
        }
      ],
      "stateMutability": "view",
      "type": "function"
    },
    {
      "inputs": [
        {
          "internalType": "uint256",
          "name": "tokenId",
          "type": "uint256"
        }
      ],
      "name": "ownerOf",
      "outputs": [
        {
          "internalType": "address",
          "name": "",
          "type": "address"
        }
      ],
      "stateMutability": "view",
      "type": "function"
    },
    {
      "inputs": [
        {
          "internalType": "string",
          "name": "name",
          "type": "string"
        }
      ],
      "name": "price",
      "outputs": [
        {
          "internalType": "uint256",
          "name": "",
          "type": "uint256"
        }
      ],
      "stateMutability": "pure",
      "type": "function"
    },
    {
      "inputs": [
        {
          "internalType": "string",
          "name": "",
          "type": "string"
        }
      ],
      "name": "records",
      "outputs": [
        {
          "internalType": "string",
          "name": "",
          "type": "string"
        }
      ],
      "stateMutability": "view",
      "type": "function"
    },
    {
      "inputs": [
        {
          "internalType": "string",
          "name": "name",
          "type": "string"
        }
      ],
      "name": "register",
      "outputs": [],
      "stateMutability": "payable",
      "type": "function"
    },
    {
      "inputs": [
        {
          "internalType": "address",
          "name": "from",
          "type": "address"
        },
        {
          "internalType": "address",
          "name": "to",
          "type": "address"
        },
        {
          "internalType": "uint256",
          "name": "tokenId",
          "type": "uint256"
        }
      ],
      "name": "safeTransferFrom",
      "outputs": [],
      "stateMutability": "nonpayable",
      "type": "function"
    },
    {
      "inputs": [
        {
          "internalType": "address",
          "name": "from",
          "type": "address"
        },
        {
          "internalType": "address",
          "name": "to",
          "type": "address"
        },
        {
          "internalType": "uint256",
          "name": "tokenId",
          "type": "uint256"
        },
        {
          "internalType": "bytes",
          "name": "data",
          "type": "bytes"
        }
      ],
      "name": "safeTransferFrom",
      "outputs": [],
      "stateMutability": "nonpayable",
      "type": "function"
    },
    {
      "inputs": [
        {
          "internalType": "address",
          "name": "operator",
          "type": "address"
        },
        {
          "internalType": "bool",
          "name": "approved",
          "type": "bool"
        }
      ],
      "name": "setApprovalForAll",
      "outputs": [],
      "stateMutability": "nonpayable",
      "type": "function"
    },
    {
      "inputs": [
        {
          "internalType": "string",
          "name": "name",
          "type": "string"
        },
        {
          "internalType": "string",
          "name": "record",
          "type": "string"
        }
      ],
      "name": "setRecord",
      "outputs": [],
      "stateMutability": "nonpayable",
      "type": "function"
    },
    {
      "inputs": [
        {
          "internalType": "bytes4",
          "name": "interfaceId",
          "type": "bytes4"
        }
      ],
      "name": "supportsInterface",
      "outputs": [
        {
          "internalType": "bool",
          "name": "",
          "type": "bool"
        }
      ],
      "stateMutability": "view",
      "type": "function"
    },
    {
      "inputs": [],
      "name": "symbol",
      "outputs": [
        {
          "internalType": "string",
          "name": "",
          "type": "string"
        }
      ],
      "stateMutability": "view",
      "type": "function"
    },
    {
      "inputs": [],
      "name": "tld",
      "outputs": [
        {
          "internalType": "string",
          "name": "",
          "type": "string"
        }
      ],
      "stateMutability": "view",
      "type": "function"
    },
    {
      "inputs": [
        {
          "internalType": "uint256",
          "name": "tokenId",
          "type": "uint256"
        }
      ],
      "name": "tokenURI",
      "outputs": [
        {
          "internalType": "string",
          "name": "",
          "type": "string"
        }
      ],
      "stateMutability": "view",
      "type": "function"
    },
    {
      "inputs": [
        {
          "internalType": "address",
          "name": "from",
          "type": "address"
        },
        {
          "internalType": "address",
          "name": "to",
          "type": "address"
        },
        {
          "internalType": "uint256",
          "name": "tokenId",
          "type": "uint256"
        }
      ],
      "name": "transferFrom",
      "outputs": [],
      "stateMutability": "nonpayable",
      "type": "function"
    },
    {
      "inputs": [
        {
          "internalType": "string",
          "name": "name",
          "type": "string"
        }
      ],
      "name": "valid",
      "outputs": [
        {
          "internalType": "bool",
          "name": "",
          "type": "bool"
        }
      ],
      "stateMutability": "pure",
      "type": "function"
    },
    {
      "inputs": [],
      "name": "withdraw",
      "outputs": [],
      "stateMutability": "nonpayable",
      "type": "function"
    }
  ],
  "bytecode": "0x6080604052604051806108a0016040528061086b81526020016200524261086b9139600a90805190602001906200003892919062000287565b506040518060400160405280600d81526020017f3c2f746578743e3c2f7376673e00000000000000000000000000000000000000815250600b90805190602001906200008692919062000287565b5060405162005aad38038062005aad8339818101604052810190620000ac9190620004d4565b6040518060400160405280601181526020017f46756e64204e616d6520536572766963650000000000000000000000000000008152506040518060400160405280600381526020017f464e53000000000000000000000000000000000000000000000000000000000081525081600090805190602001906200013092919062000287565b5080600190805190602001906200014992919062000287565b50505080600990805190602001906200016492919062000287565b50620001b16040518060400160405280601881526020017f2573206e616d652073657276696365206465706c6f796564000000000000000081525082620001b860201b62001afa1760201c565b5062000622565b6200025a8282604051602401620001d192919062000582565b6040516020818303038152906040527f4b5c4277000000000000000000000000000000000000000000000000000000007bffffffffffffffffffffffffffffffffffffffffffffffffffffffff19166020820180517bffffffffffffffffffffffffffffffffffffffffffffffffffffffff83818316178352505050506200025e60201b60201c565b5050565b60008151905060006a636f6e736f6c652e6c6f679050602083016000808483855afa5050505050565b8280546200029590620005ec565b90600052602060002090601f016020900481019282620002b9576000855562000305565b82601f10620002d457805160ff191683800117855562000305565b8280016001018555821562000305579182015b8281111562000304578251825591602001919060010190620002e7565b5b50905062000314919062000318565b5090565b5b808211156200033357600081600090555060010162000319565b5090565b6000604051905090565b600080fd5b600080fd5b600080fd5b600080fd5b6000601f19601f8301169050919050565b7f4e487b7100000000000000000000000000000000000000000000000000000000600052604160045260246000fd5b620003a08262000355565b810181811067ffffffffffffffff82111715620003c257620003c162000366565b5b80604052505050565b6000620003d762000337565b9050620003e5828262000395565b919050565b600067ffffffffffffffff82111562000408576200040762000366565b5b620004138262000355565b9050602081019050919050565b60005b838110156200044057808201518184015260208101905062000423565b8381111562000450576000848401525b50505050565b60006200046d6200046784620003ea565b620003cb565b9050828152602081018484840111156200048c576200048b62000350565b5b6200049984828562000420565b509392505050565b600082601f830112620004b957620004b86200034b565b5b8151620004cb84826020860162000456565b91505092915050565b600060208284031215620004ed57620004ec62000341565b5b600082015167ffffffffffffffff8111156200050e576200050d62000346565b5b6200051c84828501620004a1565b91505092915050565b600081519050919050565b600082825260208201905092915050565b60006200054e8262000525565b6200055a818562000530565b93506200056c81856020860162000420565b620005778162000355565b840191505092915050565b600060408201905081810360008301526200059e818562000541565b90508181036020830152620005b4818462000541565b90509392505050565b7f4e487b7100000000000000000000000000000000000000000000000000000000600052602260045260246000fd5b600060028204905060018216806200060557607f821691505b602082108114156200061c576200061b620005bd565b5b50919050565b614c1080620006326000396000f3fe60806040526004361061019c5760003560e01c806370a08231116100ec578063bf40fac11161008a578063e985e9c511610064578063e985e9c514610624578063f2c298be14610661578063fb825e5f1461067d578063fe2c6198146106a85761019c565b8063bf40fac114610581578063c1880a98146105be578063c87b56dd146105e75761019c565b806395d89b41116100c657806395d89b41146104c75780639791c097146104f2578063a22cb4651461052f578063b88d4fde146105585761019c565b806370a08231146104345780638da5cb5b146104715780638f32d59b1461049c5761019c565b8063264492351161015957806342842e0e1161013357806342842e0e146103545780634622ab031461037d578063541e771d146103ba5780636352211e146103f75761019c565b806326449235146102d55780632d551432146103125780633ccfd60b1461033d5761019c565b806301ffc9a7146101a157806306fdde03146101de578063081812fc14610209578063095ea7b31461024657806311dd88451461026f57806323b872dd146102ac575b600080fd5b3480156101ad57600080fd5b506101c860048036038101906101c39190613243565b6106e5565b6040516101d5919061328b565b60405180910390f35b3480156101ea57600080fd5b506101f36107c7565b604051610200919061333f565b60405180910390f35b34801561021557600080fd5b50610230600480360381019061022b9190613397565b610859565b60405161023d9190613405565b60405180910390f35b34801561025257600080fd5b5061026d6004803603810190610268919061344c565b61089f565b005b34801561027b57600080fd5b50610296600480360381019061029191906134f1565b6109b7565b6040516102a3919061333f565b60405180910390f35b3480156102b857600080fd5b506102d360048036038101906102ce919061353e565b610a6a565b005b3480156102e157600080fd5b506102fc60048036038101906102f791906136c1565b610aca565b6040516103099190613405565b60405180910390f35b34801561031e57600080fd5b50610327610b13565b604051610334919061333f565b60405180910390f35b34801561034957600080fd5b50610352610ba1565b005b34801561036057600080fd5b5061037b6004803603810190610376919061353e565b610c67565b005b34801561038957600080fd5b506103a4600480360381019061039f9190613397565b610c87565b6040516103b1919061333f565b60405180910390f35b3480156103c657600080fd5b506103e160048036038101906103dc91906136c1565b610d27565b6040516103ee919061333f565b60405180910390f35b34801561040357600080fd5b5061041e60048036038101906104199190613397565b610ddd565b60405161042b9190613405565b60405180910390f35b34801561044057600080fd5b5061045b6004803603810190610456919061370a565b610e64565b6040516104689190613746565b60405180910390f35b34801561047d57600080fd5b50610486610f1c565b6040516104939190613782565b60405180910390f35b3480156104a857600080fd5b506104b1610f42565b6040516104be919061328b565b60405180910390f35b3480156104d357600080fd5b506104dc610f9a565b6040516104e9919061333f565b60405180910390f35b3480156104fe57600080fd5b50610519600480360381019061051491906134f1565b61102c565b604051610526919061328b565b60405180910390f35b34801561053b57600080fd5b50610556600480360381019061055191906137c9565b6110e0565b005b34801561056457600080fd5b5061057f600480360381019061057a91906138aa565b6110f6565b005b34801561058d57600080fd5b506105a860048036038101906105a391906134f1565b611158565b6040516105b59190613405565b60405180910390f35b3480156105ca57600080fd5b506105e560048036038101906105e0919061392d565b6111a3565b005b3480156105f357600080fd5b5061060e60048036038101906106099190613397565b611251565b60405161061b919061333f565b60405180910390f35b34801561063057600080fd5b5061064b600480360381019061064691906139ae565b611364565b604051610658919061328b565b60405180910390f35b61067b600480360381019061067691906134f1565b6113f8565b005b34801561068957600080fd5b50610692611876565b60405161069f9190613afa565b60405180910390f35b3480156106b457600080fd5b506106cf60048036038101906106ca91906134f1565b611a54565b6040516106dc9190613746565b60405180910390f35b60007f80ac58cd000000000000000000000000000000000000000000000000000000007bffffffffffffffffffffffffffffffffffffffffffffffffffffffff1916827bffffffffffffffffffffffffffffffffffffffffffffffffffffffff191614806107b057507f5b5e139f000000000000000000000000000000000000000000000000000000007bffffffffffffffffffffffffffffffffffffffffffffffffffffffff1916827bffffffffffffffffffffffffffffffffffffffffffffffffffffffff1916145b806107c057506107bf82611b96565b5b9050919050565b6060600080546107d690613b4b565b80601f016020809104026020016040519081016040528092919081815260200182805461080290613b4b565b801561084f5780601f106108245761010080835404028352916020019161084f565b820191906000526020600020905b81548152906001019060200180831161083257829003601f168201915b5050505050905090565b600061086482611c00565b6004600083815260200190815260200160002060009054906101000a900473ffffffffffffffffffffffffffffffffffffffff169050919050565b60006108aa82610ddd565b90508073ffffffffffffffffffffffffffffffffffffffff168373ffffffffffffffffffffffffffffffffffffffff16141561091b576040517f08c379a000000000000000000000000000000000000000000000000000000000815260040161091290613bef565b60405180910390fd5b8073ffffffffffffffffffffffffffffffffffffffff1661093a611c4b565b73ffffffffffffffffffffffffffffffffffffffff161480610969575061096881610963611c4b565b611364565b5b6109a8576040517f08c379a000000000000000000000000000000000000000000000000000000000815260040161099f90613c81565b60405180910390fd5b6109b28383611c53565b505050565b6060600e83836040516109cb929190613cd1565b908152602001604051809103902080546109e490613b4b565b80601f0160208091040260200160405190810160405280929190818152602001828054610a1090613b4b565b8015610a5d5780601f10610a3257610100808354040283529160200191610a5d565b820191906000526020600020905b815481529060010190602001808311610a4057829003601f168201915b5050505050905092915050565b610a7b610a75611c4b565b82611d0c565b610aba576040517f08c379a0000000000000000000000000000000000000000000000000000000008152600401610ab190613d5c565b60405180910390fd5b610ac5838383611da1565b505050565b600c818051602081018201805184825260208301602085012081835280955050505050506000915054906101000a900473ffffffffffffffffffffffffffffffffffffffff1681565b60098054610b2090613b4b565b80601f0160208091040260200160405190810160405280929190818152602001828054610b4c90613b4b565b8015610b995780601f10610b6e57610100808354040283529160200191610b99565b820191906000526020600020905b815481529060010190602001808311610b7c57829003601f168201915b505050505081565b610ba9610f42565b610bb257600080fd5b600047905060003373ffffffffffffffffffffffffffffffffffffffff1682604051610bdd90613dad565b60006040518083038185875af1925050503d8060008114610c1a576040519150601f19603f3d011682016040523d82523d6000602084013e610c1f565b606091505b5050905080610c63576040517f08c379a0000000000000000000000000000000000000000000000000000000008152600401610c5a90613e0e565b60405180910390fd5b5050565b610c82838383604051806020016040528060008152506110f6565b505050565b600d6020528060005260406000206000915090508054610ca690613b4b565b80601f0160208091040260200160405190810160405280929190818152602001828054610cd290613b4b565b8015610d1f5780601f10610cf457610100808354040283529160200191610d1f565b820191906000526020600020905b815481529060010190602001808311610d0257829003601f168201915b505050505081565b600e818051602081018201805184825260208301602085012081835280955050505050506000915090508054610d5c90613b4b565b80601f0160208091040260200160405190810160405280929190818152602001828054610d8890613b4b565b8015610dd55780601f10610daa57610100808354040283529160200191610dd5565b820191906000526020600020905b815481529060010190602001808311610db857829003601f168201915b505050505081565b600080610de98361209b565b9050600073ffffffffffffffffffffffffffffffffffffffff168173ffffffffffffffffffffffffffffffffffffffff161415610e5b576040517f08c379a0000000000000000000000000000000000000000000000000000000008152600401610e5290613e7a565b60405180910390fd5b80915050919050565b60008073ffffffffffffffffffffffffffffffffffffffff168273ffffffffffffffffffffffffffffffffffffffff161415610ed5576040517f08c379a0000000000000000000000000000000000000000000000000000000008152600401610ecc90613f0c565b60405180910390fd5b600360008373ffffffffffffffffffffffffffffffffffffffff1673ffffffffffffffffffffffffffffffffffffffff168152602001908152602001600020549050919050565b600860009054906101000a900473ffffffffffffffffffffffffffffffffffffffff1681565b6000600860009054906101000a900473ffffffffffffffffffffffffffffffffffffffff1673ffffffffffffffffffffffffffffffffffffffff163373ffffffffffffffffffffffffffffffffffffffff1614905090565b606060018054610fa990613b4b565b80601f0160208091040260200160405190810160405280929190818152602001828054610fd590613b4b565b80156110225780601f10610ff757610100808354040283529160200191611022565b820191906000526020600020905b81548152906001019060200180831161100557829003601f168201915b5050505050905090565b6000600361107d84848080601f016020809104026020016040519081016040528093929190818152602001838380828437600081840152601f19601f820116905080830192505050505050506120d8565b101580156110d85750600a6110d584848080601f016020809104026020016040519081016040528093929190818152602001838380828437600081840152601f19601f820116905080830192505050505050506120d8565b11155b905092915050565b6110f26110eb611c4b565b838361228d565b5050565b611107611101611c4b565b83611d0c565b611146576040517f08c379a000000000000000000000000000000000000000000000000000000000815260040161113d90613d5c565b60405180910390fd5b611152848484846123fa565b50505050565b6000600c838360405161116c929190613cd1565b908152602001604051809103902060009054906101000a900473ffffffffffffffffffffffffffffffffffffffff16905092915050565b3373ffffffffffffffffffffffffffffffffffffffff16600c85856040516111cc929190613cd1565b908152602001604051809103902060009054906101000a900473ffffffffffffffffffffffffffffffffffffffff1673ffffffffffffffffffffffffffffffffffffffff161461121b57600080fd5b8181600e868660405161122f929190613cd1565b9081526020016040518091039020919061124a9291906130ae565b5050505050565b606061125c82611c00565b600060066000848152602001908152602001600020805461127c90613b4b565b80601f01602080910402602001604051908101604052809291908181526020018280546112a890613b4b565b80156112f55780601f106112ca576101008083540402835291602001916112f5565b820191906000526020600020905b8154815290600101906020018083116112d857829003601f168201915b505050505090506000611306612456565b905060008151141561131c57819250505061135f565b600082511115611351578082604051602001611339929190613f5d565b6040516020818303038152906040529250505061135f565b61135a8461246d565b925050505b919050565b6000600560008473ffffffffffffffffffffffffffffffffffffffff1673ffffffffffffffffffffffffffffffffffffffff16815260200190815260200160002060008373ffffffffffffffffffffffffffffffffffffffff1673ffffffffffffffffffffffffffffffffffffffff16815260200190815260200160002060009054906101000a900460ff16905092915050565b600073ffffffffffffffffffffffffffffffffffffffff16600c8383604051611422929190613cd1565b908152602001604051809103902060009054906101000a900473ffffffffffffffffffffffffffffffffffffffff1673ffffffffffffffffffffffffffffffffffffffff161461149e576040517f3a81d6fc00000000000000000000000000000000000000000000000000000000815260040160405180910390fd5b6114a8828261102c565b6114eb5781816040517f7f19f48d0000000000000000000000000000000000000000000000000000000081526004016114e2929190613fae565b60405180910390fd5b60006114f78383611a54565b90508034101561153c576040517f08c379a00000000000000000000000000000000000000000000000000000000081526004016115339061401e565b60405180910390fd5b6000838360096040516020016115549392919061411e565b60405160208183030381529060405290506000600a82600b60405160200161157e9392919061414f565b6040516020818303038152906040529050600061159b60076124d5565b905060006115ec87878080601f016020809104026020016040519081016040528093929190818152602001838380828437600081840152601f19601f820116905080830192505050505050506120d8565b905060006115f9826124e3565b90506116ed604051806060016040528060318152602001614b316031913989898080601f016020809104026020016040519081016040528093929190818152602001838380828437600081840152601f19601f820116905080830192505050505050506009805461166990613b4b565b80601f016020809104026020016040519081016040528092919081815260200182805461169590613b4b565b80156116e25780601f106116b7576101008083540402835291602001916116e2565b820191906000526020600020905b8154815290600101906020018083116116c557829003601f168201915b5050505050866125bb565b6000611723866116fc8761265d565b8460405160200161170f939291906142fc565b60405160208183030381529060405261265d565b905060008160405160200161173891906143a5565b604051602081830303815290604052905061176a604051806060016040528060398152602001614af8603991396127c1565b6117a96040518060400160405280600e81526020017f46696e616c20746f6b656e55524900000000000000000000000000000000000081525082611afa565b6117ca604051806060016040528060398152602001614b62603991396127c1565b6117d4338661285a565b6117de8582612878565b33600c8b8b6040516117f1929190613cd1565b908152602001604051809103902060006101000a81548173ffffffffffffffffffffffffffffffffffffffff021916908373ffffffffffffffffffffffffffffffffffffffff1602179055508989600d6000888152602001908152602001600020919061185f9291906130ae565b5061186a60076128ec565b50505050505050505050565b60606118b66040518060400160405280601f81526020017f47657474696e6720616c6c206e616d65732066726f6d20636f6e7472616374008152506127c1565b60006118c260076124d5565b67ffffffffffffffff8111156118db576118da613596565b5b60405190808252806020026020018201604052801561190e57816020015b60608152602001906001900390816118f95790505b50905060005b61191e60076124d5565b811015611a4c57600d6000828152602001908152602001600020805461194390613b4b565b80601f016020809104026020016040519081016040528092919081815260200182805461196f90613b4b565b80156119bc5780601f10611991576101008083540402835291602001916119bc565b820191906000526020600020905b81548152906001019060200180831161199f57829003601f168201915b50505050508282815181106119d4576119d36143c7565b5b6020026020010181905250611a396040518060400160405280601781526020017f4e616d6520666f7220746f6b656e20256420697320257300000000000000000081525082848481518110611a2c57611a2b6143c7565b5b6020026020010151612902565b8080611a4490614425565b915050611914565b508091505090565b600080611aa484848080601f016020809104026020016040519081016040528093929190818152602001838380828437600081840152601f19601f820116905080830192505050505050506120d8565b905060008111611ab357600080fd5b6003811415611acd576706f05b59d3b20000915050611af4565b6004811415611ae757670429d069189e0000915050611af4565b67016345785d8a00009150505b92915050565b611b928282604051602401611b1092919061446e565b6040516020818303038152906040527f4b5c4277000000000000000000000000000000000000000000000000000000007bffffffffffffffffffffffffffffffffffffffffffffffffffffffff19166020820180517bffffffffffffffffffffffffffffffffffffffffffffffffffffffff83818316178352505050506129a1565b5050565b60007f01ffc9a7000000000000000000000000000000000000000000000000000000007bffffffffffffffffffffffffffffffffffffffffffffffffffffffff1916827bffffffffffffffffffffffffffffffffffffffffffffffffffffffff1916149050919050565b611c09816129ca565b611c48576040517f08c379a0000000000000000000000000000000000000000000000000000000008152600401611c3f90613e7a565b60405180910390fd5b50565b600033905090565b816004600083815260200190815260200160002060006101000a81548173ffffffffffffffffffffffffffffffffffffffff021916908373ffffffffffffffffffffffffffffffffffffffff160217905550808273ffffffffffffffffffffffffffffffffffffffff16611cc683610ddd565b73ffffffffffffffffffffffffffffffffffffffff167f8c5be1e5ebec7d5bd14f71427d1e84f3dd0314c0f7b2291e5b200ac8c7c3b92560405160405180910390a45050565b600080611d1883610ddd565b90508073ffffffffffffffffffffffffffffffffffffffff168473ffffffffffffffffffffffffffffffffffffffff161480611d5a5750611d598185611364565b5b80611d9857508373ffffffffffffffffffffffffffffffffffffffff16611d8084610859565b73ffffffffffffffffffffffffffffffffffffffff16145b91505092915050565b8273ffffffffffffffffffffffffffffffffffffffff16611dc182610ddd565b73ffffffffffffffffffffffffffffffffffffffff1614611e17576040517f08c379a0000000000000000000000000000000000000000000000000000000008152600401611e0e90614517565b60405180910390fd5b600073ffffffffffffffffffffffffffffffffffffffff168273ffffffffffffffffffffffffffffffffffffffff161415611e87576040517f08c379a0000000000000000000000000000000000000000000000000000000008152600401611e7e906145a9565b60405180910390fd5b611e948383836001612a0b565b8273ffffffffffffffffffffffffffffffffffffffff16611eb482610ddd565b73ffffffffffffffffffffffffffffffffffffffff1614611f0a576040517f08c379a0000000000000000000000000000000000000000000000000000000008152600401611f0190614517565b60405180910390fd5b6004600082815260200190815260200160002060006101000a81549073ffffffffffffffffffffffffffffffffffffffff02191690556001600360008573ffffffffffffffffffffffffffffffffffffffff1673ffffffffffffffffffffffffffffffffffffffff168152602001908152602001600020600082825403925050819055506001600360008473ffffffffffffffffffffffffffffffffffffffff1673ffffffffffffffffffffffffffffffffffffffff16815260200190815260200160002060008282540192505081905550816002600083815260200190815260200160002060006101000a81548173ffffffffffffffffffffffffffffffffffffffff021916908373ffffffffffffffffffffffffffffffffffffffff160217905550808273ffffffffffffffffffffffffffffffffffffffff168473ffffffffffffffffffffffffffffffffffffffff167fddf252ad1be2c89b69c2b068fc378daa952ba7f163c4a11628f55a4df523b3ef60405160405180910390a46120968383836001612b31565b505050565b60006002600083815260200190815260200160002060009054906101000a900473ffffffffffffffffffffffffffffffffffffffff169050919050565b60008060008084519050600092505b80821015612282576000858381518110612104576121036143c7565b5b602001015160f81c60f81b9050608060f81b817effffffffffffffffffffffffffffffffffffffffffffffffffffffffffffff191610156121535760018361214c91906145c9565b925061226e565b60e060f81b817effffffffffffffffffffffffffffffffffffffffffffffffffffffffffffff191610156121955760028361218e91906145c9565b925061226d565b60f060f81b817effffffffffffffffffffffffffffffffffffffffffffffffffffffffffffff191610156121d7576003836121d091906145c9565b925061226c565b60f8801b817effffffffffffffffffffffffffffffffffffffffffffffffffffffffffffff191610156122185760048361221191906145c9565b925061226b565b60fc60f81b817effffffffffffffffffffffffffffffffffffffffffffffffffffffffffffff1916101561225a5760058361225391906145c9565b925061226a565b60068361226791906145c9565b92505b5b5b5b5b50828061227a90614425565b9350506120e7565b829350505050919050565b8173ffffffffffffffffffffffffffffffffffffffff168373ffffffffffffffffffffffffffffffffffffffff1614156122fc576040517f08c379a00000000000000000000000000000000000000000000000000000000081526004016122f39061466b565b60405180910390fd5b80600560008573ffffffffffffffffffffffffffffffffffffffff1673ffffffffffffffffffffffffffffffffffffffff16815260200190815260200160002060008473ffffffffffffffffffffffffffffffffffffffff1673ffffffffffffffffffffffffffffffffffffffff16815260200190815260200160002060006101000a81548160ff0219169083151502179055508173ffffffffffffffffffffffffffffffffffffffff168373ffffffffffffffffffffffffffffffffffffffff167f17307eab39ab6107e8899845ad3d59bd9653f200f220920489ca2b5937696c31836040516123ed919061328b565b60405180910390a3505050565b612405848484611da1565b61241184848484612b37565b612450576040517f08c379a0000000000000000000000000000000000000000000000000000000008152600401612447906146fd565b60405180910390fd5b50505050565b606060405180602001604052806000815250905090565b606061247882611c00565b6000612482612456565b905060008151116124a257604051806020016040528060008152506124cd565b806124ac846124e3565b6040516020016124bd929190613f5d565b6040516020818303038152906040525b915050919050565b600081600001549050919050565b6060600060016124f284612cbf565b01905060008167ffffffffffffffff81111561251157612510613596565b5b6040519080825280601f01601f1916602001820160405280156125435781602001600182028036833780820191505090505b509050600082602001820190505b6001156125b0578080600190039150507f3031323334353637383961626364656600000000000000000000000000000000600a86061a8153600a858161259a5761259961471d565b5b04945060008514156125ab576125b0565b612551565b819350505050919050565b612657848484846040516024016125d5949392919061474c565b6040516020818303038152906040527f8eafb02b000000000000000000000000000000000000000000000000000000007bffffffffffffffffffffffffffffffffffffffffffffffffffffffff19166020820180517bffffffffffffffffffffffffffffffffffffffffffffffffffffffff83818316178352505050506129a1565b50505050565b6060600082511415612680576040518060200160405280600081525090506127bc565b6000604051806060016040528060408152602001614b9b60409139905060006003600285516126af91906145c9565b6126b991906147a6565b60046126c591906147d7565b67ffffffffffffffff8111156126de576126dd613596565b5b6040519080825280601f01601f1916602001820160405280156127105781602001600182028036833780820191505090505b509050600182016020820185865187015b8082101561277c576003820191508151603f8160121c168501518453600184019350603f81600c1c168501518453600184019350603f8160061c168501518453600184019350603f8116850151845360018401935050612721565b505060038651066001811461279857600281146127ab576127b3565b603d6001830353603d60028303536127b3565b603d60018303535b50505080925050505b919050565b612857816040516024016127d5919061333f565b6040516020818303038152906040527f41304fac000000000000000000000000000000000000000000000000000000007bffffffffffffffffffffffffffffffffffffffffffffffffffffffff19166020820180517bffffffffffffffffffffffffffffffffffffffffffffffffffffffff83818316178352505050506129a1565b50565b612874828260405180602001604052806000815250612e12565b5050565b612881826129ca565b6128c0576040517f08c379a00000000000000000000000000000000000000000000000000000000081526004016128b7906148a3565b60405180910390fd5b806006600084815260200190815260200160002090805190602001906128e7929190613134565b505050565b6001816000016000828254019250508190555050565b61299c83838360405160240161291a939291906148c3565b6040516020818303038152906040527f5970e089000000000000000000000000000000000000000000000000000000007bffffffffffffffffffffffffffffffffffffffffffffffffffffffff19166020820180517bffffffffffffffffffffffffffffffffffffffffffffffffffffffff83818316178352505050506129a1565b505050565b60008151905060006a636f6e736f6c652e6c6f679050602083016000808483855afa5050505050565b60008073ffffffffffffffffffffffffffffffffffffffff166129ec8361209b565b73ffffffffffffffffffffffffffffffffffffffff1614159050919050565b6001811115612b2b57600073ffffffffffffffffffffffffffffffffffffffff168473ffffffffffffffffffffffffffffffffffffffff1614612a9f5780600360008673ffffffffffffffffffffffffffffffffffffffff1673ffffffffffffffffffffffffffffffffffffffff1681526020019081526020016000206000828254612a979190614908565b925050819055505b600073ffffffffffffffffffffffffffffffffffffffff168373ffffffffffffffffffffffffffffffffffffffff1614612b2a5780600360008573ffffffffffffffffffffffffffffffffffffffff1673ffffffffffffffffffffffffffffffffffffffff1681526020019081526020016000206000828254612b2291906145c9565b925050819055505b5b50505050565b50505050565b6000612b588473ffffffffffffffffffffffffffffffffffffffff16612e6d565b15612cb2578373ffffffffffffffffffffffffffffffffffffffff1663150b7a02612b81611c4b565b8786866040518563ffffffff1660e01b8152600401612ba39493929190614991565b6020604051808303816000875af1925050508015612bdf57506040513d601f19601f82011682018060405250810190612bdc91906149f2565b60015b612c62573d8060008114612c0f576040519150601f19603f3d011682016040523d82523d6000602084013e612c14565b606091505b50600081511415612c5a576040517f08c379a0000000000000000000000000000000000000000000000000000000008152600401612c51906146fd565b60405180910390fd5b805181602001fd5b63150b7a0260e01b7bffffffffffffffffffffffffffffffffffffffffffffffffffffffff1916817bffffffffffffffffffffffffffffffffffffffffffffffffffffffff191614915050612cb7565b600190505b949350505050565b600080600090507a184f03e93ff9f4daa797ed6e38ed64bf6a1f0100000000000000008310612d1d577a184f03e93ff9f4daa797ed6e38ed64bf6a1f0100000000000000008381612d1357612d1261471d565b5b0492506040810190505b6d04ee2d6d415b85acef81000000008310612d5a576d04ee2d6d415b85acef81000000008381612d5057612d4f61471d565b5b0492506020810190505b662386f26fc100008310612d8957662386f26fc100008381612d7f57612d7e61471d565b5b0492506010810190505b6305f5e1008310612db2576305f5e1008381612da857612da761471d565b5b0492506008810190505b6127108310612dd7576127108381612dcd57612dcc61471d565b5b0492506004810190505b60648310612dfa5760648381612df057612def61471d565b5b0492506002810190505b600a8310612e09576001810190505b80915050919050565b612e1c8383612e90565b612e296000848484612b37565b612e68576040517f08c379a0000000000000000000000000000000000000000000000000000000008152600401612e5f906146fd565b60405180910390fd5b505050565b6000808273ffffffffffffffffffffffffffffffffffffffff163b119050919050565b600073ffffffffffffffffffffffffffffffffffffffff168273ffffffffffffffffffffffffffffffffffffffff161415612f00576040517f08c379a0000000000000000000000000000000000000000000000000000000008152600401612ef790614a6b565b60405180910390fd5b612f09816129ca565b15612f49576040517f08c379a0000000000000000000000000000000000000000000000000000000008152600401612f4090614ad7565b60405180910390fd5b612f57600083836001612a0b565b612f60816129ca565b15612fa0576040517f08c379a0000000000000000000000000000000000000000000000000000000008152600401612f9790614ad7565b60405180910390fd5b6001600360008473ffffffffffffffffffffffffffffffffffffffff1673ffffffffffffffffffffffffffffffffffffffff16815260200190815260200160002060008282540192505081905550816002600083815260200190815260200160002060006101000a81548173ffffffffffffffffffffffffffffffffffffffff021916908373ffffffffffffffffffffffffffffffffffffffff160217905550808273ffffffffffffffffffffffffffffffffffffffff16600073ffffffffffffffffffffffffffffffffffffffff167fddf252ad1be2c89b69c2b068fc378daa952ba7f163c4a11628f55a4df523b3ef60405160405180910390a46130aa600083836001612b31565b5050565b8280546130ba90613b4b565b90600052602060002090601f0160209004810192826130dc5760008555613123565b82601f106130f557803560ff1916838001178555613123565b82800160010185558215613123579182015b82811115613122578235825591602001919060010190613107565b5b50905061313091906131ba565b5090565b82805461314090613b4b565b90600052602060002090601f01602090048101928261316257600085556131a9565b82601f1061317b57805160ff19168380011785556131a9565b828001600101855582156131a9579182015b828111156131a857825182559160200191906001019061318d565b5b5090506131b691906131ba565b5090565b5b808211156131d35760008160009055506001016131bb565b5090565b6000604051905090565b600080fd5b600080fd5b60007fffffffff0000000000000000000000000000000000000000000000000000000082169050919050565b613220816131eb565b811461322b57600080fd5b50565b60008135905061323d81613217565b92915050565b600060208284031215613259576132586131e1565b5b60006132678482850161322e565b91505092915050565b60008115159050919050565b61328581613270565b82525050565b60006020820190506132a0600083018461327c565b92915050565b600081519050919050565b600082825260208201905092915050565b60005b838110156132e05780820151818401526020810190506132c5565b838111156132ef576000848401525b50505050565b6000601f19601f8301169050919050565b6000613311826132a6565b61331b81856132b1565b935061332b8185602086016132c2565b613334816132f5565b840191505092915050565b600060208201905081810360008301526133598184613306565b905092915050565b6000819050919050565b61337481613361565b811461337f57600080fd5b50565b6000813590506133918161336b565b92915050565b6000602082840312156133ad576133ac6131e1565b5b60006133bb84828501613382565b91505092915050565b600073ffffffffffffffffffffffffffffffffffffffff82169050919050565b60006133ef826133c4565b9050919050565b6133ff816133e4565b82525050565b600060208201905061341a60008301846133f6565b92915050565b613429816133e4565b811461343457600080fd5b50565b60008135905061344681613420565b92915050565b60008060408385031215613463576134626131e1565b5b600061347185828601613437565b925050602061348285828601613382565b9150509250929050565b600080fd5b600080fd5b600080fd5b60008083601f8401126134b1576134b061348c565b5b8235905067ffffffffffffffff8111156134ce576134cd613491565b5b6020830191508360018202830111156134ea576134e9613496565b5b9250929050565b60008060208385031215613508576135076131e1565b5b600083013567ffffffffffffffff811115613526576135256131e6565b5b6135328582860161349b565b92509250509250929050565b600080600060608486031215613557576135566131e1565b5b600061356586828701613437565b935050602061357686828701613437565b925050604061358786828701613382565b9150509250925092565b600080fd5b7f4e487b7100000000000000000000000000000000000000000000000000000000600052604160045260246000fd5b6135ce826132f5565b810181811067ffffffffffffffff821117156135ed576135ec613596565b5b80604052505050565b60006136006131d7565b905061360c82826135c5565b919050565b600067ffffffffffffffff82111561362c5761362b613596565b5b613635826132f5565b9050602081019050919050565b82818337600083830152505050565b600061366461365f84613611565b6135f6565b9050828152602081018484840111156136805761367f613591565b5b61368b848285613642565b509392505050565b600082601f8301126136a8576136a761348c565b5b81356136b8848260208601613651565b91505092915050565b6000602082840312156136d7576136d66131e1565b5b600082013567ffffffffffffffff8111156136f5576136f46131e6565b5b61370184828501613693565b91505092915050565b6000602082840312156137205761371f6131e1565b5b600061372e84828501613437565b91505092915050565b61374081613361565b82525050565b600060208201905061375b6000830184613737565b92915050565b600061376c826133c4565b9050919050565b61377c81613761565b82525050565b60006020820190506137976000830184613773565b92915050565b6137a681613270565b81146137b157600080fd5b50565b6000813590506137c38161379d565b92915050565b600080604083850312156137e0576137df6131e1565b5b60006137ee85828601613437565b92505060206137ff858286016137b4565b9150509250929050565b600067ffffffffffffffff82111561382457613823613596565b5b61382d826132f5565b9050602081019050919050565b600061384d61384884613809565b6135f6565b90508281526020810184848401111561386957613868613591565b5b613874848285613642565b509392505050565b600082601f8301126138915761389061348c565b5b81356138a184826020860161383a565b91505092915050565b600080600080608085870312156138c4576138c36131e1565b5b60006138d287828801613437565b94505060206138e387828801613437565b93505060406138f487828801613382565b925050606085013567ffffffffffffffff811115613915576139146131e6565b5b6139218782880161387c565b91505092959194509250565b60008060008060408587031215613947576139466131e1565b5b600085013567ffffffffffffffff811115613965576139646131e6565b5b6139718782880161349b565b9450945050602085013567ffffffffffffffff811115613994576139936131e6565b5b6139a08782880161349b565b925092505092959194509250565b600080604083850312156139c5576139c46131e1565b5b60006139d385828601613437565b92505060206139e485828601613437565b9150509250929050565b600081519050919050565b600082825260208201905092915050565b6000819050602082019050919050565b600082825260208201905092915050565b6000613a36826132a6565b613a408185613a1a565b9350613a508185602086016132c2565b613a59816132f5565b840191505092915050565b6000613a708383613a2b565b905092915050565b6000602082019050919050565b6000613a90826139ee565b613a9a81856139f9565b935083602082028501613aac85613a0a565b8060005b85811015613ae85784840389528151613ac98582613a64565b9450613ad483613a78565b925060208a01995050600181019050613ab0565b50829750879550505050505092915050565b60006020820190508181036000830152613b148184613a85565b905092915050565b7f4e487b7100000000000000000000000000000000000000000000000000000000600052602260045260246000fd5b60006002820490506001821680613b6357607f821691505b60208210811415613b7757613b76613b1c565b5b50919050565b7f4552433732313a20617070726f76616c20746f2063757272656e74206f776e6560008201527f7200000000000000000000000000000000000000000000000000000000000000602082015250565b6000613bd96021836132b1565b9150613be482613b7d565b604082019050919050565b60006020820190508181036000830152613c0881613bcc565b9050919050565b7f4552433732313a20617070726f76652063616c6c6572206973206e6f7420746f60008201527f6b656e206f776e6572206f7220617070726f76656420666f7220616c6c000000602082015250565b6000613c6b603d836132b1565b9150613c7682613c0f565b604082019050919050565b60006020820190508181036000830152613c9a81613c5e565b9050919050565b600081905092915050565b6000613cb88385613ca1565b9350613cc5838584613642565b82840190509392505050565b6000613cde828486613cac565b91508190509392505050565b7f4552433732313a2063616c6c6572206973206e6f7420746f6b656e206f776e6560008201527f72206f7220617070726f76656400000000000000000000000000000000000000602082015250565b6000613d46602d836132b1565b9150613d5182613cea565b604082019050919050565b60006020820190508181036000830152613d7581613d39565b9050919050565b600081905092915050565b50565b6000613d97600083613d7c565b9150613da282613d87565b600082019050919050565b6000613db882613d8a565b9150819050919050565b7f4661696c656420746f207769746864726177204d617469630000000000000000600082015250565b6000613df86018836132b1565b9150613e0382613dc2565b602082019050919050565b60006020820190508181036000830152613e2781613deb565b9050919050565b7f4552433732313a20696e76616c696420746f6b656e2049440000000000000000600082015250565b6000613e646018836132b1565b9150613e6f82613e2e565b602082019050919050565b60006020820190508181036000830152613e9381613e57565b9050919050565b7f4552433732313a2061646472657373207a65726f206973206e6f74206120766160008201527f6c6964206f776e65720000000000000000000000000000000000000000000000602082015250565b6000613ef66029836132b1565b9150613f0182613e9a565b604082019050919050565b60006020820190508181036000830152613f2581613ee9565b9050919050565b6000613f37826132a6565b613f418185613ca1565b9350613f518185602086016132c2565b80840191505092915050565b6000613f698285613f2c565b9150613f758284613f2c565b91508190509392505050565b6000613f8d83856132b1565b9350613f9a838584613642565b613fa3836132f5565b840190509392505050565b60006020820190508181036000830152613fc9818486613f81565b90509392505050565b7f4e6f7420656e6f756768204d6174696320706169640000000000000000000000600082015250565b60006140086015836132b1565b915061401382613fd2565b602082019050919050565b6000602082019050818103600083015261403781613ffb565b9050919050565b7f2e00000000000000000000000000000000000000000000000000000000000000600082015250565b6000614074600183613ca1565b915061407f8261403e565b600182019050919050565b60008190508160005260206000209050919050565b600081546140ac81613b4b565b6140b68186613ca1565b945060018216600081146140d157600181146140e257614115565b60ff19831686528186019350614115565b6140eb8561408a565b60005b8381101561410d578154818901526001820191506020810190506140ee565b838801955050505b50505092915050565b600061412b828587613cac565b915061413682614067565b9150614142828461409f565b9150819050949350505050565b600061415b828661409f565b91506141678285613f2c565b9150614173828461409f565b9150819050949350505050565b7f7b226e616d65223a202200000000000000000000000000000000000000000000600082015250565b60006141b6600a83613ca1565b91506141c182614180565b600a82019050919050565b7f222c20226465736372697074696f6e223a20224120646f6d61696e206f6e207460008201527f6865204e696e6a61206e616d652073657276696365222c2022696d616765223a60208201527f2022646174613a696d6167652f7376672b786d6c3b6261736536342c00000000604082015250565b600061424e605c83613ca1565b9150614259826141cc565b605c82019050919050565b7f222c226c656e677468223a220000000000000000000000000000000000000000600082015250565b600061429a600c83613ca1565b91506142a582614264565b600c82019050919050565b7f227d000000000000000000000000000000000000000000000000000000000000600082015250565b60006142e6600283613ca1565b91506142f1826142b0565b600282019050919050565b6000614307826141a9565b91506143138286613f2c565b915061431e82614241565b915061432a8285613f2c565b91506143358261428d565b91506143418284613f2c565b915061434c826142d9565b9150819050949350505050565b7f646174613a6170706c69636174696f6e2f6a736f6e3b6261736536342c000000600082015250565b600061438f601d83613ca1565b915061439a82614359565b601d82019050919050565b60006143b082614382565b91506143bc8284613f2c565b915081905092915050565b7f4e487b7100000000000000000000000000000000000000000000000000000000600052603260045260246000fd5b7f4e487b7100000000000000000000000000000000000000000000000000000000600052601160045260246000fd5b600061443082613361565b91507fffffffffffffffffffffffffffffffffffffffffffffffffffffffffffffffff821415614463576144626143f6565b5b600182019050919050565b600060408201905081810360008301526144888185613306565b9050818103602083015261449c8184613306565b90509392505050565b7f4552433732313a207472616e736665722066726f6d20696e636f72726563742060008201527f6f776e6572000000000000000000000000000000000000000000000000000000602082015250565b60006145016025836132b1565b915061450c826144a5565b604082019050919050565b60006020820190508181036000830152614530816144f4565b9050919050565b7f4552433732313a207472616e7366657220746f20746865207a65726f2061646460008201527f7265737300000000000000000000000000000000000000000000000000000000602082015250565b60006145936024836132b1565b915061459e82614537565b604082019050919050565b600060208201905081810360008301526145c281614586565b9050919050565b60006145d482613361565b91506145df83613361565b9250827fffffffffffffffffffffffffffffffffffffffffffffffffffffffffffffffff03821115614614576146136143f6565b5b828201905092915050565b7f4552433732313a20617070726f766520746f2063616c6c657200000000000000600082015250565b60006146556019836132b1565b91506146608261461f565b602082019050919050565b6000602082019050818103600083015261468481614648565b9050919050565b7f4552433732313a207472616e7366657220746f206e6f6e20455243373231526560008201527f63656976657220696d706c656d656e7465720000000000000000000000000000602082015250565b60006146e76032836132b1565b91506146f28261468b565b604082019050919050565b60006020820190508181036000830152614716816146da565b9050919050565b7f4e487b7100000000000000000000000000000000000000000000000000000000600052601260045260246000fd5b600060808201905081810360008301526147668187613306565b9050818103602083015261477a8186613306565b9050818103604083015261478e8185613306565b905061479d6060830184613737565b95945050505050565b60006147b182613361565b91506147bc83613361565b9250826147cc576147cb61471d565b5b828204905092915050565b60006147e282613361565b91506147ed83613361565b9250817fffffffffffffffffffffffffffffffffffffffffffffffffffffffffffffffff0483118215151615614826576148256143f6565b5b828202905092915050565b7f45524337323155524953746f726167653a2055524920736574206f66206e6f6e60008201527f6578697374656e7420746f6b656e000000000000000000000000000000000000602082015250565b600061488d602e836132b1565b915061489882614831565b604082019050919050565b600060208201905081810360008301526148bc81614880565b9050919050565b600060608201905081810360008301526148dd8186613306565b90506148ec6020830185613737565b81810360408301526148fe8184613306565b9050949350505050565b600061491382613361565b915061491e83613361565b925082821015614931576149306143f6565b5b828203905092915050565b600081519050919050565b600082825260208201905092915050565b60006149638261493c565b61496d8185614947565b935061497d8185602086016132c2565b614986816132f5565b840191505092915050565b60006080820190506149a660008301876133f6565b6149b360208301866133f6565b6149c06040830185613737565b81810360608301526149d28184614958565b905095945050505050565b6000815190506149ec81613217565b92915050565b600060208284031215614a0857614a076131e1565b5b6000614a16848285016149dd565b91505092915050565b7f4552433732313a206d696e7420746f20746865207a65726f2061646472657373600082015250565b6000614a556020836132b1565b9150614a6082614a1f565b602082019050919050565b60006020820190508181036000830152614a8481614a48565b9050919050565b7f4552433732313a20746f6b656e20616c7265616479206d696e74656400000000600082015250565b6000614ac1601c836132b1565b9150614acc82614a8b565b602082019050919050565b60006020820190508181036000830152614af081614ab4565b905091905056fe0a2d2d2d2d2d2d2d2d2d2d2d2d2d2d2d2d2d2d2d2d2d2d2d2d2d2d2d2d2d2d2d2d2d2d2d2d2d2d2d2d2d2d2d2d2d2d2d2d2d2d2d2d2d2d2d2d5265676973746572696e672025732e2573206f6e2074686520636f6e7472616374207769746820746f6b656e49442025642d2d2d2d2d2d2d2d2d2d2d2d2d2d2d2d2d2d2d2d2d2d2d2d2d2d2d2d2d2d2d2d2d2d2d2d2d2d2d2d2d2d2d2d2d2d2d2d2d2d2d2d2d2d2d2d0a4142434445464748494a4b4c4d4e4f505152535455565758595a6162636465666768696a6b6c6d6e6f707172737475767778797a303132333435363738392b2fa2646970667358221220808ce593e83acd0fa8e6b3e83e8d7658098bb406b4158f883cc3912dbc0dccf264736f6c634300080a00333c73766720786d6c6e733d22687474703a2f2f7777772e77332e6f72672f323030302f737667222077696474683d2232373022206865696768743d22323730222066696c6c3d226e6f6e65223e3c706174682066696c6c3d2275726c282342292220643d224d302030683237307632373048307a222f3e3c646566733e3c66696c7465722069643d22412220636f6c6f722d696e746572706f6c6174696f6e2d66696c746572733d2273524742222066696c746572556e6974733d227573657253706163654f6e55736522206865696768743d22323730222077696474683d22323730223e3c666544726f70536861646f772064783d2230222064793d22312220737464446576696174696f6e3d22322220666c6f6f642d6f7061636974793d222e323235222077696474683d223230302522206865696768743d2232303025222f3e3c2f66696c7465723e3c2f646566733e3c7061746820643d224d37322e3836332034322e393439632d2e3636382d2e3338372d312e3432362d2e35392d322e3139372d2e3539732d312e3532392e3230342d322e3139372e35396c2d31302e30383120362e3033322d362e383520332e3933342d31302e30383120362e303332632d2e3636382e3338372d312e3432362e35392d322e3139372e3539732d312e3532392d2e3230342d322e3139372d2e35396c2d382e3031332d342e37323161342e353220342e35322030203020312d312e3538392d312e363136632d2e3338342d2e3636352d2e3539342d312e3431382d2e3630382d322e313837762d392e3331632d2e3031332d2e3737352e3138352d312e3533382e3537322d322e32303861342e323520342e323520302030203120312e3632352d312e3539356c372e3838342d342e3539632e3636382d2e33383720312e3432362d2e353920322e3139372d2e353973312e3532392e32303420322e3139372e35396c372e38383420342e353961342e353220342e353220302030203120312e35383920312e363136632e3338342e3636352e35393420312e3431382e36303820322e31383776362e3033326c362e38352d342e303635762d362e303332632e3031332d2e3737352d2e3138352d312e3533382d2e3537322d322e32303861342e323520342e32352030203020302d312e3632352d312e3539354c34312e3435362032342e3539632d2e3636382d2e3338372d312e3432362d2e35392d322e3139372d2e3539732d312e3532392e3230342d322e3139372e35396c2d31342e38363420382e36353561342e323520342e32352030203020302d312e36323520312e353935632d2e3338372e36372d2e35383520312e3433342d2e35373220322e3230387631372e343431632d2e3031332e3737352e31383520312e3533382e35373220322e32303861342e323520342e323520302030203020312e36323520312e3539356c31342e38363420382e363535632e3636382e33383720312e3432362e353920322e3139372e353973312e3532392d2e32303420322e3139372d2e35396c31302e3038312d352e39303120362e38352d342e3036352031302e3038312d352e393031632e3636382d2e33383720312e3432362d2e353920322e3139372d2e353973312e3532392e32303420322e3139372e35396c372e38383420342e353961342e353220342e353220302030203120312e35383920312e363136632e3338342e3636352e35393420312e3431382e36303820322e31383776392e333131632e3031332e3737352d2e31383520312e3533382d2e35373220322e32303861342e323520342e32352030203020312d312e36323520312e3539356c2d372e38383420342e373231632d2e3636382e3338372d312e3432362e35392d322e3139372e3539732d312e3532392d2e3230342d322e3139372d2e35396c2d372e3838342d342e353961342e353220342e35322030203020312d312e3538392d312e363136632d2e3338352d2e3636352d2e3539342d312e3431382d2e3630382d322e313837762d362e3033326c2d362e383520342e30363576362e303332632d2e3031332e3737352e31383520312e3533382e35373220322e32303861342e323520342e323520302030203020312e36323520312e3539356c31342e38363420382e363535632e3636382e33383720312e3432362e353920322e3139372e353973312e3532392d2e32303420322e3139372d2e35396c31342e3836342d382e363535632e3635372d2e33393420312e3230342d2e393520312e3538392d312e363136732e3539342d312e3431382e3630392d322e3138375635352e353338632e3031332d2e3737352d2e3138352d312e3533382d2e3537322d322e32303861342e323520342e32352030203020302d312e3632352d312e3539356c2d31342e3939332d382e3738367a222066696c6c3d2223666666222f3e3c646566733e3c6c696e6561724772616469656e742069643d2242222078313d2230222079313d2230222078323d22323730222079323d2232373022206772616469656e74556e6974733d227573657253706163654f6e557365223e3c73746f702073746f702d636f6c6f723d2223636235656565222f3e3c73746f70206f66667365743d2231222073746f702d636f6c6f723d2223306364376534222073746f702d6f7061636974793d222e3939222f3e3c2f6c696e6561724772616469656e743e3c2f646566733e3c7465787420783d2233322e352220793d223233312220666f6e742d73697a653d223237222066696c6c3d2223666666222066696c7465723d2275726c282341292220666f6e742d66616d696c793d22506c7573204a616b617274612053616e732c44656a6156752053616e732c4e6f746f20436f6c6f7220456d6f6a692c4170706c6520436f6c6f7220456d6f6a692c73616e732d73657269662220666f6e742d7765696768743d22626f6c64223e",
  "linkReferences": {},
  "deployedLinkReferences": {}
}